{
  "contractName": "Persssist",
  "abi": [
    {
      "anonymous": false,
      "inputs": [
        {
          "indexed": false,
          "internalType": "uint256",
          "name": "fileId",
          "type": "uint256"
        },
        {
          "indexed": false,
          "internalType": "string",
          "name": "filePath",
          "type": "string"
        },
        {
          "indexed": false,
          "internalType": "uint256",
          "name": "fileSize",
          "type": "uint256"
        },
        {
          "indexed": false,
          "internalType": "string",
          "name": "fileType",
          "type": "string"
        },
        {
          "indexed": false,
          "internalType": "string",
          "name": "fileName",
          "type": "string"
        },
        {
          "indexed": false,
          "internalType": "address payable",
          "name": "uploader",
          "type": "address"
        }
      ],
      "name": "FileUploaded",
      "type": "event"
    },
    {
      "inputs": [],
      "name": "fileCount",
      "outputs": [
        {
          "internalType": "uint256",
          "name": "",
          "type": "uint256"
        }
      ],
      "stateMutability": "view",
      "type": "function",
      "constant": true
    },
    {
      "inputs": [
        {
          "internalType": "uint256",
          "name": "",
          "type": "uint256"
        }
      ],
      "name": "files",
      "outputs": [
        {
          "internalType": "uint256",
          "name": "fileId",
          "type": "uint256"
        },
        {
          "internalType": "string",
          "name": "filePath",
          "type": "string"
        },
        {
          "internalType": "uint256",
          "name": "fileSize",
          "type": "uint256"
        },
        {
          "internalType": "string",
          "name": "fileType",
          "type": "string"
        },
        {
          "internalType": "string",
          "name": "fileName",
          "type": "string"
        },
        {
          "internalType": "address payable",
          "name": "uploader",
          "type": "address"
        }
      ],
      "stateMutability": "view",
      "type": "function",
      "constant": true
    },
    {
      "inputs": [],
      "name": "name",
      "outputs": [
        {
          "internalType": "string",
          "name": "",
          "type": "string"
        }
      ],
      "stateMutability": "view",
      "type": "function",
      "constant": true
    },
    {
      "inputs": [
        {
          "internalType": "uint256",
          "name": "",
          "type": "uint256"
        }
      ],
      "name": "sizeOfFiles",
      "outputs": [
        {
          "internalType": "uint256",
          "name": "",
          "type": "uint256"
        }
      ],
      "stateMutability": "view",
      "type": "function",
      "constant": true
    },
    {
      "inputs": [],
      "name": "getOwnerName",
      "outputs": [
        {
          "internalType": "string",
          "name": "Nombre",
          "type": "string"
        },
        {
          "internalType": "string",
          "name": "Apellido1",
          "type": "string"
        },
        {
          "internalType": "string",
          "name": "Apellido2",
          "type": "string"
        }
      ],
      "stateMutability": "view",
      "type": "function",
      "constant": true
    },
    {
      "inputs": [],
      "name": "getNamePrueba",
      "outputs": [
        {
          "internalType": "string",
          "name": "",
          "type": "string"
        }
      ],
      "stateMutability": "view",
      "type": "function",
      "constant": true
    },
    {
      "inputs": [
        {
          "internalType": "string",
          "name": "_filePath",
          "type": "string"
        },
        {
          "internalType": "uint256",
          "name": "_fileSize",
          "type": "uint256"
        },
        {
          "internalType": "string",
          "name": "_fileType",
          "type": "string"
        },
        {
          "internalType": "string",
          "name": "_fileName",
          "type": "string"
        }
      ],
      "name": "uploadFile",
      "outputs": [],
      "stateMutability": "nonpayable",
      "type": "function"
    },
    {
      "inputs": [],
      "name": "getFiles",
      "outputs": [
        {
          "components": [
            {
              "internalType": "uint256",
              "name": "fileId",
              "type": "uint256"
            },
            {
              "internalType": "string",
              "name": "filePath",
              "type": "string"
            },
            {
              "internalType": "uint256",
              "name": "fileSize",
              "type": "uint256"
            },
            {
              "internalType": "string",
              "name": "fileType",
              "type": "string"
            },
            {
              "internalType": "string",
              "name": "fileName",
              "type": "string"
            },
            {
              "internalType": "address payable",
              "name": "uploader",
              "type": "address"
            }
          ],
          "internalType": "struct Persssist.File[]",
          "name": "",
          "type": "tuple[]"
        },
        {
          "internalType": "uint256[]",
          "name": "",
          "type": "uint256[]"
        }
      ],
      "stateMutability": "view",
      "type": "function",
      "constant": true
    }
  ],
  "bytecode": "0x60c0604052600960809081526814195c9cdcdcda5cdd60ba1b60a0526000906200002a908262000199565b5060006001556040805160a0810182526006606082019081526553657267696f60d01b6080830152815281518083018352600581526426bab737bd60d91b602082810191909152808301919091528251808401845260078152664761727269646f60c81b918101919091529181019190915280516004908190620000af908262000199565b5060208201516001820190620000c6908262000199565b5060408201516002820190620000dd908262000199565b505050348015620000ed57600080fd5b5062000265565b634e487b7160e01b600052604160045260246000fd5b600181811c908216806200011f57607f821691505b6020821081036200014057634e487b7160e01b600052602260045260246000fd5b50919050565b601f8211156200019457600081815260208120601f850160051c810160208610156200016f5750805b601f850160051c820191505b8181101562000190578281556001016200017b565b5050505b505050565b81516001600160401b03811115620001b557620001b5620000f4565b620001cd81620001c684546200010a565b8462000146565b602080601f831160018114620002055760008415620001ec5750858301515b600019600386901b1c1916600185901b17855562000190565b600085815260208120601f198616915b82811015620002365788860151825594840194600190910190840162000215565b5085821015620002555787850151600019600388901b60f8161c191681555b5050505050600190811b01905550565b61102580620002756000396000f3fe608060405234801561001057600080fd5b50600436106100885760003560e01c8063439535191161005b57806343953519146100ed578063621b651d14610104578063ef10ac1514610124578063f4c714b41461012c57600080fd5b806306fdde031461008d578063145ef6e9146100ab57806320f21708146100c25780632da96d73146100d7575b600080fd5b610095610151565b6040516100a29190610b25565b60405180910390f35b6100b36101df565b6040516100a293929190610b3f565b6100d56100d0366004610c25565b6103a2565b005b6100df61050b565b6040516100a2929190610cf2565b6100f660015481565b6040519081526020016100a2565b6100f6610112366004610dce565b60036020526000908152604090205481565b610095610874565b61013f61013a366004610dce565b610909565b6040516100a296959493929190610de7565b6000805461015e90610e48565b80601f016020809104026020016040519081016040528092919081815260200182805461018a90610e48565b80156101d75780601f106101ac576101008083540402835291602001916101d7565b820191906000526020600020905b8154815290600101906020018083116101ba57829003601f168201915b505050505081565b60608060606004600001600460010160046002018280546101ff90610e48565b80601f016020809104026020016040519081016040528092919081815260200182805461022b90610e48565b80156102785780601f1061024d57610100808354040283529160200191610278565b820191906000526020600020905b81548152906001019060200180831161025b57829003601f168201915b5050505050925081805461028b90610e48565b80601f01602080910402602001604051908101604052809291908181526020018280546102b790610e48565b80156103045780601f106102d957610100808354040283529160200191610304565b820191906000526020600020905b8154815290600101906020018083116102e757829003601f168201915b5050505050915080805461031790610e48565b80601f016020809104026020016040519081016040528092919081815260200182805461034390610e48565b80156103905780601f1061036557610100808354040283529160200191610390565b820191906000526020600020905b81548152906001019060200180831161037357829003601f168201915b50505050509050925092509250909192565b60008451116103b057600080fd5b60008251116103be57600080fd5b60008151116103cc57600080fd5b336103d657600080fd5b600083116103e357600080fd5b600180549060006103f383610e98565b90915550506040805160c08101825260018054808352602080840189815284860189905260608501889052608085018790523360a0860152600092835260029091529390208251815592519192919082019061044f9082610f00565b50604082015160028201556060820151600382019061046e9082610f00565b50608082015160048201906104839082610f00565b5060a09190910151600590910180546001600160a01b0319166001600160a01b039092169190911790556001805460009081526003602052604090819020859055905490517f18fe72dea7e3849a958d8ddaf36c0a56df898162e5a3253bb944b1d9609b2e5c916104fd9187908790879087903390610de7565b60405180910390a150505050565b606080600060015467ffffffffffffffff81111561052b5761052b610b82565b60405190808252806020026020018201604052801561059e57816020015b61058b6040518060c00160405280600081526020016060815260200160008152602001606081526020016060815260200160006001600160a01b031681525090565b8152602001906001900390816105495790505b509050600060015467ffffffffffffffff8111156105be576105be610b82565b6040519080825280602002602001820160405280156105e7578160200160208202803683370190505b50905060005b60015481101561086a5760026000610606836001610fc0565b81526020019081526020016000206040518060c00160405290816000820154815260200160018201805461063990610e48565b80601f016020809104026020016040519081016040528092919081815260200182805461066590610e48565b80156106b25780601f10610687576101008083540402835291602001916106b2565b820191906000526020600020905b81548152906001019060200180831161069557829003601f168201915b50505050508152602001600282015481526020016003820180546106d590610e48565b80601f016020809104026020016040519081016040528092919081815260200182805461070190610e48565b801561074e5780601f106107235761010080835404028352916020019161074e565b820191906000526020600020905b81548152906001019060200180831161073157829003601f168201915b5050505050815260200160048201805461076790610e48565b80601f016020809104026020016040519081016040528092919081815260200182805461079390610e48565b80156107e05780601f106107b5576101008083540402835291602001916107e0565b820191906000526020600020905b8154815290600101906020018083116107c357829003601f168201915b5050509183525050600591909101546001600160a01b0316602090910152835184908390811061081257610812610fd9565b60209081029190910101526003600061082c836001610fc0565b81526020019081526020016000205482828151811061084d5761084d610fd9565b60209081029190910101528061086281610e98565b9150506105ed565b5090939092509050565b60606004600001805461088690610e48565b80601f01602080910402602001604051908101604052809291908181526020018280546108b290610e48565b80156108ff5780601f106108d4576101008083540402835291602001916108ff565b820191906000526020600020905b8154815290600101906020018083116108e257829003601f168201915b5050505050905090565b6002602052600090815260409020805460018201805491929161092b90610e48565b80601f016020809104026020016040519081016040528092919081815260200182805461095790610e48565b80156109a45780601f10610979576101008083540402835291602001916109a4565b820191906000526020600020905b81548152906001019060200180831161098757829003601f168201915b5050505050908060020154908060030180546109bf90610e48565b80601f01602080910402602001604051908101604052809291908181526020018280546109eb90610e48565b8015610a385780601f10610a0d57610100808354040283529160200191610a38565b820191906000526020600020905b815481529060010190602001808311610a1b57829003601f168201915b505050505090806004018054610a4d90610e48565b80601f0160208091040260200160405190810160405280929190818152602001828054610a7990610e48565b8015610ac65780601f10610a9b57610100808354040283529160200191610ac6565b820191906000526020600020905b815481529060010190602001808311610aa957829003601f168201915b505050600590930154919250506001600160a01b031686565b6000815180845260005b81811015610b0557602081850181015186830182015201610ae9565b506000602082860101526020601f19601f83011685010191505092915050565b602081526000610b386020830184610adf565b9392505050565b606081526000610b526060830186610adf565b8281036020840152610b648186610adf565b90508281036040840152610b788185610adf565b9695505050505050565b634e487b7160e01b600052604160045260246000fd5b600082601f830112610ba957600080fd5b813567ffffffffffffffff80821115610bc457610bc4610b82565b604051601f8301601f19908116603f01168101908282118183101715610bec57610bec610b82565b81604052838152866020858801011115610c0557600080fd5b836020870160208301376000602085830101528094505050505092915050565b60008060008060808587031215610c3b57600080fd5b843567ffffffffffffffff80821115610c5357600080fd5b610c5f88838901610b98565b9550602087013594506040870135915080821115610c7c57600080fd5b610c8888838901610b98565b93506060870135915080821115610c9e57600080fd5b50610cab87828801610b98565b91505092959194509250565b600081518084526020808501945080840160005b83811015610ce757815187529582019590820190600101610ccb565b509495945050505050565b60006040808301818452808651808352606092508286019150828160051b8701016020808a0160005b84811015610dae57605f198a8503018652815160c081518652848201518186880152610d4982880182610adf565b915050898201518a870152888201518682038a880152610d698282610adf565b91505060808083015187830382890152610d838382610adf565b60a0948501516001600160a01b03169890940197909752505095830195935090820190600101610d1b565b505087820390880152610dc18189610cb7565b9998505050505050505050565b600060208284031215610de057600080fd5b5035919050565b86815260c060208201526000610e0060c0830188610adf565b8660408401528281036060840152610e188187610adf565b90508281036080840152610e2c8186610adf565b91505060018060a01b03831660a0830152979650505050505050565b600181811c90821680610e5c57607f821691505b602082108103610e7c57634e487b7160e01b600052602260045260246000fd5b50919050565b634e487b7160e01b600052601160045260246000fd5b600060018201610eaa57610eaa610e82565b5060010190565b601f821115610efb57600081815260208120601f850160051c81016020861015610ed85750805b601f850160051c820191505b81811015610ef757828155600101610ee4565b5050505b505050565b815167ffffffffffffffff811115610f1a57610f1a610b82565b610f2e81610f288454610e48565b84610eb1565b602080601f831160018114610f635760008415610f4b5750858301515b600019600386901b1c1916600185901b178555610ef7565b600085815260208120601f198616915b82811015610f9257888601518255948401946001909101908401610f73565b5085821015610fb05787850151600019600388901b60f8161c191681555b5050505050600190811b01905550565b80820180821115610fd357610fd3610e82565b92915050565b634e487b7160e01b600052603260045260246000fdfea2646970667358221220eccb51ebd6e54e5a0cc4848bbcc442320a4df05580edeb269fff19809901c07964736f6c63430008110033",
  "immutableReferences": {},
  "source": "// SPDX-License-Identifier: MIT\r\npragma solidity >=0.4.22 <0.9.0;\r\n\r\ncontract Persssist {\r\n    string public name = \"Persssist\";\r\n    uint256 public fileCount = 0;\r\n    \r\n    // this mapping behaves as a \"catalog\"\r\n    // of files uploaded to the storage, we declare\r\n    // it as public in order to access it directly from the Frontend\r\n    mapping(uint256 => File) public files;\r\n    mapping(uint256 => uint256) public sizeOfFiles;\r\n\r\n    struct Name {\r\n        string Nombre;\r\n        string Apellido1;\r\n        string Apellido2;\r\n    }\r\n    \r\n    Name owner_name = Name(\r\n        \"Sergio\",\r\n        \"Munoz\",\r\n        \"Garrido\"\r\n    );\r\n\r\n    function getOwnerName () public view returns (string memory Nombre, string memory Apellido1, string memory Apellido2){\r\n        return (owner_name.Nombre, owner_name.Apellido1, owner_name.Apellido2);\r\n    }\r\n\r\n    function getNamePrueba () public view returns (string memory){\r\n        return owner_name.Nombre;\r\n    }\r\n\r\n    struct File {\r\n        uint256 fileId;\r\n        string filePath;\r\n        uint256 fileSize;\r\n        string fileType;\r\n        string fileName;\r\n        address payable uploader;\r\n    }\r\n\r\n    event FileUploaded(\r\n        uint256 fileId,\r\n        string filePath,\r\n        uint256 fileSize,\r\n        string fileType,\r\n        string fileName,\r\n        address payable uploader\r\n    );\r\n    \r\n    // we upload the file metadata\r\n    // to the smart contract files\r\n    // mapping in order to persist\r\n    // the information.\r\n    function uploadFile(\r\n        string memory _filePath,\r\n        uint256 _fileSize,\r\n        string memory _fileType,\r\n        string memory _fileName\r\n    ) public {\r\n        require(bytes(_filePath).length > 0);\r\n        require(bytes(_fileType).length > 0);\r\n        require(bytes(_fileName).length > 0);\r\n        require(msg.sender != address(0));\r\n        require(_fileSize > 0);\r\n        \r\n        // since solidity mappings\r\n        // do not have a lenght attribute\r\n        // the simplest way to control the amount \r\n        // of files is using a counter\r\n        fileCount++;\r\n\r\n        files[fileCount] = File(\r\n            fileCount,\r\n            _filePath,\r\n            _fileSize,\r\n            _fileType,\r\n            _fileName,\r\n            payable(msg.sender)\r\n        );\r\n\r\n        sizeOfFiles[fileCount] = _fileSize;\r\n        \r\n        // From the frontend application\r\n        // we can listen the events emitted from\r\n        // the smart contract in order to update the UI.\r\n        emit FileUploaded(\r\n            fileCount,\r\n            _filePath,\r\n            _fileSize,\r\n            _fileType,\r\n            _fileName,\r\n            payable(msg.sender)\r\n        );\r\n    }\r\n\r\n    function getFiles () public view returns (File[] memory, uint256[] memory) {\r\n        //Para dar valores a los arrays _files y _sizeOfFiles es necesario inicializarlos primero.\r\n        //Es necesario inicializarlos para que tengan un tamao fijo, como se muestra a continuacin:\r\n        File[] memory _files = new File[](fileCount);\r\n        uint256[] memory _sizeOfFiles = new uint256[](fileCount);\r\n\r\n        for (uint256 i = 0; i < fileCount; i++) {\r\n            _files[i] = files[i+1];\r\n            _sizeOfFiles[i] = sizeOfFiles[i+1];\r\n        }\r\n\r\n        return (_files, _sizeOfFiles);\r\n    }\r\n\r\n}",
  "sourcePath": "/home/sergio/Escritorio/master/DII/practicas/p2/P2_DII_BLOCKCHAIN/contracts/Contract.sol",
  "compiler": {
    "name": "solc",
    "version": "0.8.17+commit.8df45f5f.Emscripten.clang"
  },
  "schemaVersion": "3.4.11",
  "updatedAt": "2023-01-13T15:05:33.680Z",
  "networkType": "ethereum",
  "devdoc": {
    "kind": "dev",
    "methods": {},
    "version": 1
  },
  "userdoc": {
    "kind": "user",
    "methods": {},
    "version": 1
  }
}