{
  "contractName": "SmartIPFS",
  "abi": [
    {
      "anonymous": false,
      "inputs": [
        {
          "indexed": false,
          "internalType": "string",
          "name": "fileHash",
          "type": "string"
        },
        {
          "indexed": false,
          "internalType": "uint256",
          "name": "fileSize",
          "type": "uint256"
        },
        {
          "indexed": false,
          "internalType": "string",
          "name": "fileType",
          "type": "string"
        },
        {
          "indexed": false,
          "internalType": "string",
          "name": "fileName",
          "type": "string"
        },
        {
          "indexed": false,
          "internalType": "address payable",
          "name": "uploader",
          "type": "address"
        }
      ],
      "name": "FileUploaded",
      "type": "event"
    },
    {
      "inputs": [],
      "name": "name",
      "outputs": [
        {
          "internalType": "string",
          "name": "",
          "type": "string"
        }
      ],
      "stateMutability": "view",
      "type": "function",
      "constant": true
    },
    {
      "inputs": [
        {
          "internalType": "string",
          "name": "_fileHash",
          "type": "string"
        },
        {
          "internalType": "uint256",
          "name": "_fileSize",
          "type": "uint256"
        },
        {
          "internalType": "string",
          "name": "_fileType",
          "type": "string"
        },
        {
          "internalType": "string",
          "name": "_fileName",
          "type": "string"
        }
      ],
      "name": "uploadFile",
      "outputs": [],
      "stateMutability": "nonpayable",
      "type": "function"
    },
    {
      "inputs": [],
      "name": "checkFiles",
      "outputs": [
        {
          "components": [
            {
              "internalType": "string",
              "name": "fileHash",
              "type": "string"
            },
            {
              "internalType": "uint256",
              "name": "fileSize",
              "type": "uint256"
            },
            {
              "internalType": "string",
              "name": "fileType",
              "type": "string"
            },
            {
              "internalType": "string",
              "name": "fileName",
              "type": "string"
            },
            {
              "internalType": "address payable",
              "name": "uploader",
              "type": "address"
            }
          ],
          "internalType": "struct SmartIPFS.File[]",
          "name": "",
          "type": "tuple[]"
        }
      ],
      "stateMutability": "view",
      "type": "function",
      "constant": true
    },
    {
      "inputs": [
        {
          "internalType": "string",
          "name": "hash",
          "type": "string"
        }
      ],
      "name": "downloadFile",
      "outputs": [
        {
          "internalType": "bool",
          "name": "_allowed",
          "type": "bool"
        },
        {
          "internalType": "string",
          "name": "_fileName",
          "type": "string"
        },
        {
          "internalType": "string",
          "name": "_fileType",
          "type": "string"
        }
      ],
      "stateMutability": "view",
      "type": "function",
      "constant": true
    }
  ],
  "bytecode": "0x60c06040526009608090815268536d6172744950465360b81b60a0526000906200002a9082620000e4565b503480156200003857600080fd5b50620001b0565b634e487b7160e01b600052604160045260246000fd5b600181811c908216806200006a57607f821691505b6020821081036200008b57634e487b7160e01b600052602260045260246000fd5b50919050565b601f821115620000df57600081815260208120601f850160051c81016020861015620000ba5750805b601f850160051c820191505b81811015620000db57828155600101620000c6565b5050505b505050565b81516001600160401b038111156200010057620001006200003f565b620001188162000111845462000055565b8462000091565b602080601f831160018114620001505760008415620001375750858301515b600019600386901b1c1916600185901b178555620000db565b600085815260208120601f198616915b82811015620001815788860151825594840194600190910190840162000160565b5085821015620001a05787850151600019600388901b60f8161c191681555b5050505050600190811b01905550565b610d2280620001c06000396000f3fe608060405234801561001057600080fd5b506004361061004c5760003560e01c806306fdde031461005157806320f217081461006f578063dc575bbb14610084578063f0249826146100a6575b600080fd5b6100596100bb565b6040516100669190610873565b60405180910390f35b61008261007d366004610930565b610149565b005b6100976100923660046109c2565b6102a6565b604051610066939291906109ff565b6100ae61053d565b6040516100669190610a36565b600080546100c890610af6565b80601f01602080910402602001604051908101604052809291908181526020018280546100f490610af6565b80156101415780601f1061011657610100808354040283529160200191610141565b820191906000526020600020905b81548152906001019060200180831161012457829003601f168201915b505050505081565b600084511161015757600080fd5b600082511161016557600080fd5b600081511161017357600080fd5b3361017d57600080fd5b6000831161018a57600080fd5b6040805160a08101825285815260208082018690528183018590526060820184905233608083018190526000908152600182528381206002835284822054825290915291909120815182919081906101e29082610b79565b5060208201516001820155604082015160028201906102019082610b79565b50606082015160038201906102169082610b79565b5060809190910151600490910180546001600160a01b0319166001600160a01b0390921691909117905533600090815260026020526040812080549161025b83610c39565b91905055507fd92d0236560f67d0a1a9f4ea9c1bc2cec52388129c59ed81e6ce00cccf9966048585858533604051610297959493929190610c60565b60405180910390a15050505050565b600060608060005b3360009081526002602052604090205481101561053057336000908152600160209081526040808320848452909152812080546102ea90610af6565b80601f016020809104026020016040519081016040528092919081815260200182805461031690610af6565b80156103635780601f1061033857610100808354040283529160200191610363565b820191906000526020600020905b81548152906001019060200180831161034657829003601f168201915b505050505090508560405160200161037b9190610cba565b60405160208183030381529060405280519060200120816040516020016103a29190610cba565b604051602081830303815290604052805190602001200361051d573360009081526001602081815260408084208685529091529091206003018054919650906103ea90610af6565b80601f016020809104026020016040519081016040528092919081815260200182805461041690610af6565b80156104635780601f1061043857610100808354040283529160200191610463565b820191906000526020600020905b81548152906001019060200180831161044657829003601f168201915b5050336000908152600160209081526040808320898452909152902060020180549498509361049693509150610af69050565b80601f01602080910402602001604051908101604052809291908181526020018280546104c290610af6565b801561050f5780601f106104e45761010080835404028352916020019161050f565b820191906000526020600020905b8154815290600101906020018083116104f257829003601f168201915b505050505092505050610536565b508061052881610c39565b9150506102ae565b50600092505b9193909250565b336000908152600260205260408120546060919067ffffffffffffffff8111156105695761056961088d565b6040519080825280602002602001820160405280156105d557816020015b6105c26040518060a001604052806060815260200160008152602001606081526020016060815260200160006001600160a01b031681525090565b8152602001906001900390816105875790505b50905060005b3360009081526002602052604090205481101561081d5733600090815260016020908152604080832084845290915290819020815160a0810190925280548290829061062690610af6565b80601f016020809104026020016040519081016040528092919081815260200182805461065290610af6565b801561069f5780601f106106745761010080835404028352916020019161069f565b820191906000526020600020905b81548152906001019060200180831161068257829003601f168201915b50505050508152602001600182015481526020016002820180546106c290610af6565b80601f01602080910402602001604051908101604052809291908181526020018280546106ee90610af6565b801561073b5780601f106107105761010080835404028352916020019161073b565b820191906000526020600020905b81548152906001019060200180831161071e57829003601f168201915b5050505050815260200160038201805461075490610af6565b80601f016020809104026020016040519081016040528092919081815260200182805461078090610af6565b80156107cd5780601f106107a2576101008083540402835291602001916107cd565b820191906000526020600020905b8154815290600101906020018083116107b057829003601f168201915b5050509183525050600491909101546001600160a01b031660209091015282518390839081106107ff576107ff610cd6565b6020026020010181905250808061081590610c39565b9150506105db565b50919050565b60005b8381101561083e578181015183820152602001610826565b50506000910152565b6000815180845261085f816020860160208601610823565b601f01601f19169290920160200192915050565b6020815260006108866020830184610847565b9392505050565b634e487b7160e01b600052604160045260246000fd5b600082601f8301126108b457600080fd5b813567ffffffffffffffff808211156108cf576108cf61088d565b604051601f8301601f19908116603f011681019082821181831017156108f7576108f761088d565b8160405283815286602085880101111561091057600080fd5b836020870160208301376000602085830101528094505050505092915050565b6000806000806080858703121561094657600080fd5b843567ffffffffffffffff8082111561095e57600080fd5b61096a888389016108a3565b955060208701359450604087013591508082111561098757600080fd5b610993888389016108a3565b935060608701359150808211156109a957600080fd5b506109b6878288016108a3565b91505092959194509250565b6000602082840312156109d457600080fd5b813567ffffffffffffffff8111156109eb57600080fd5b6109f7848285016108a3565b949350505050565b8315158152606060208201526000610a1a6060830185610847565b8281036040840152610a2c8185610847565b9695505050505050565b60006020808301818452808551808352604092508286019150828160051b87010184880160005b83811015610ae857603f19898403018552815160a08151818652610a8382870182610847565b91505088820151898601528782015185820389870152610aa38282610847565b91505060608083015186830382880152610abd8382610847565b6080948501516001600160a01b03169790940196909652505094870194925090860190600101610a5d565b509098975050505050505050565b600181811c90821680610b0a57607f821691505b60208210810361081d57634e487b7160e01b600052602260045260246000fd5b601f821115610b7457600081815260208120601f850160051c81016020861015610b515750805b601f850160051c820191505b81811015610b7057828155600101610b5d565b5050505b505050565b815167ffffffffffffffff811115610b9357610b9361088d565b610ba781610ba18454610af6565b84610b2a565b602080601f831160018114610bdc5760008415610bc45750858301515b600019600386901b1c1916600185901b178555610b70565b600085815260208120601f198616915b82811015610c0b57888601518255948401946001909101908401610bec565b5085821015610c295787850151600019600388901b60f8161c191681555b5050505050600190811b01905550565b600060018201610c5957634e487b7160e01b600052601160045260246000fd5b5060010190565b60a081526000610c7360a0830188610847565b8660208401528281036040840152610c8b8187610847565b90508281036060840152610c9f8186610847565b91505060018060a01b03831660808301529695505050505050565b60008251610ccc818460208701610823565b9190910192915050565b634e487b7160e01b600052603260045260246000fdfea26469706673582212209cfe9f89c7ccf7738ee199a721daeaf0fcff40cb3ff50ebf6745010cfd80fda264736f6c63430008110033",
  "immutableReferences": {},
  "source": "// SPDX-License-Identifier: MIT\r\npragma solidity >=0.4.22 <0.9.0;\r\n\r\ncontract SmartIPFS {\r\n    string public name = \"SmartIPFS\";\r\n\r\n    mapping(address => mapping(uint256 => File)) fileProperty; //Esta variable asocia una lista de hashes a cada dueo\r\n    mapping(address => uint256) fileCountProperty; //Esta variable guarda cuntos archivos ha subido cada dueo\r\n\r\n    struct File {\r\n        string fileHash;\r\n        uint256 fileSize;\r\n        string fileType;\r\n        string fileName;\r\n        address payable uploader;\r\n    }\r\n\r\n    event FileUploaded(\r\n        string fileHash,\r\n        uint256 fileSize,\r\n        string fileType,\r\n        string fileName,\r\n        address payable uploader\r\n    );\r\n\r\n    function uploadFile(\r\n        string memory _fileHash,\r\n        uint256 _fileSize,\r\n        string memory _fileType,\r\n        string memory _fileName\r\n    ) public {\r\n        require(bytes(_fileHash).length > 0);\r\n        require(bytes(_fileType).length > 0);\r\n        require(bytes(_fileName).length > 0);\r\n        require(msg.sender != address(0));\r\n        require(_fileSize > 0);\r\n\r\n        File memory file_a_guardar = File(\r\n            _fileHash,\r\n            _fileSize,\r\n            _fileType,\r\n            _fileName,\r\n            payable(msg.sender)\r\n        );\r\n        \r\n        //Se aade el nuevo archivo a la lista de archivos del dueo\r\n        fileProperty[msg.sender][fileCountProperty[msg.sender]] = file_a_guardar;\r\n\r\n        fileCountProperty[msg.sender]++;\r\n\r\n        // From the frontend application\r\n        // we can listen the events emitted from\r\n        // the smart contract in order to update the UI.\r\n        emit FileUploaded(\r\n            _fileHash,\r\n            _fileSize,\r\n            _fileType,\r\n            _fileName,\r\n            payable(msg.sender)\r\n        );\r\n    }\r\n\r\n    //Esta funcin permite ver los archivos que tiene un propietario/usuario\r\n    function checkFiles () public view returns (File[] memory){\r\n        File[] memory _files = new File[](fileCountProperty[msg.sender]);\r\n\r\n        for (uint256 i = 0; i < fileCountProperty[msg.sender]; i++){\r\n            _files[i] = fileProperty[msg.sender][i];\r\n        }\r\n\r\n        return _files;\r\n    }\r\n\r\n    //Esta funcin permite comprobar si el usuario tiene permiso para descargar un archivo. \r\n    //Si el archivo es de su propiedad lo podr descargar, si no, no.\r\n    function downloadFile(string memory hash) public view returns (bool _allowed, string memory _fileName, string memory _fileType){\r\n\r\n        //Si el archivo pertenece al usuario que ejecuta la funcin, devuelve allowed = true.\r\n        for (uint256 i = 0; i < fileCountProperty[msg.sender]; i++){\r\n            //Si dentro del \"if\" se comparan directamente \"fileHash\" y \"hash\" se estn comparando realmente\r\n            //las direcciones de memoria de ambas variables, por lo que es necesario extraer su contenido +\r\n            //utilizando keccak256(abi.encodePacked)\r\n            string memory fileHash = fileProperty[msg.sender][i].fileHash;\r\n            if( keccak256(abi.encodePacked(fileHash)) == keccak256(abi.encodePacked(hash))){\r\n                _allowed = true;\r\n                _fileName = fileProperty[msg.sender][i].fileName;\r\n                _fileType = fileProperty[msg.sender][i].fileType;\r\n                return (_allowed, _fileName, _fileType);\r\n            }\r\n        }\r\n        _allowed = false;\r\n        return (_allowed, _fileName, _fileType);\r\n    }\r\n}",
  "sourcePath": "/home/sergio/Escritorio/master/DII/practicas/p2/P2_DII_BLOCKCHAIN/contracts/Contract.sol",
  "compiler": {
    "name": "solc",
    "version": "0.8.17+commit.8df45f5f.Emscripten.clang"
  },
  "schemaVersion": "3.4.11",
  "updatedAt": "2023-01-14T20:28:06.437Z",
  "networkType": "ethereum",
  "devdoc": {
    "kind": "dev",
    "methods": {},
    "version": 1
  },
  "userdoc": {
    "kind": "user",
    "methods": {},
    "version": 1
  }
}